:020000040800F2
:10000000600C00209D010008A9320008612600084C
:10001000D92E0008650700084146000800000000CE
:10002000000000000000000000000000293A000865
:100030006907000800000000253A0008294300086D
:10004000B7010008B7010008B7010008B7010008B0
:10005000B7010008B7010008B7010008B7010008A0
:10006000B7010008B7010008B7010008B701000890
:10007000B7010008B7010008B7010008B701000880
:10008000B7010008B7010008B7010008B701000870
:10009000B7010008B7010008B7010008B701000860
:1000A000B7010008B7010008B7010008B701000850
:1000B000B7010008B7010008B7010008B701000840
:1000C000B7010008B7010008B7010008B701000830
:1000D000B70100082946000835460008B7010008A6
:1000E000B7010008B7010008B7010008B701000810
:1000F000B7010008B7010008B7010008B701000800
:10010000B7010008B7010008B7010008B7010008EF
:10011000B7010008B7010008B70100084143000813
:10012000B7010008B7010008B7010008B7010008CF
:10013000B7010008B7010008B7010008B7010008BF
:10014000B7010008B7010008B7010008B7010008AF
:10015000B7010008B7010008B7010008B70100089F
:10016000B7010008B7010008B7010008B70100088F
:10017000B7010008B7010008B7010008000000003F
:10018000B7010008B7010008DFF80CD000F0D8FA7A
:100190000048004745460008600C0020064880479C
:1001A00006480047FEE7FEE7FEE7FEE7FEE7FEE75C
:1001B000FEE7FEE7FEE7FEE72D43000889010008A1
:1001C0002DE9F05F0546002092469B46884606468C
:1001D000814640241BE0284641464746224600F01F
:1001E000F8F953465A46C01A914110D311461846A1
:1001F000224600F0DFF92D1A67EB01084F46224630
:100200000120002100F0D6F917EB00094E41201E15
:10021000A4F10104DFDC484631462A464346BDE8E6
:10022000F09FD2B201E000F8012B491EFBD27047CB
:100230000022F6E710B513460A4604461946FFF7B2
:10024000F0FF204610BD2DE9FE4F804681EA0300F5
:10025000C00F0C46009021F0004123F00045B8EBA0
:100260000200A94105D24046214690461C460B4655
:10027000024623F00040104347D0270DC7F30A0081
:10028000C3F30A510290401A019040286BDAC3F37D
:10029000130040F4801B0098924620B10023D2EB5B
:1002A000030A63EB0B0B01985946C0F1400250461C
:1002B00000F080F906460D4650465946019A00F076
:1002C00098F910EB08006141002487EA115284EA92
:1002D000E7731A4340D0009A62B3019A012A4FEAA9
:1002E000075215DC001B61EB02014FF0004202EAED
:1002F0000752CDE90042001C41F5801132462B46E1
:1003000000F0CFF903B0BDE8F08F40462146F9E791
:10031000001B61EB0201001C41F5801300185B41DA
:100320002018A2F5001747EB030140EAD570B61973
:100330006D4111E06D084FEA360645EAC0754FEA97
:100340000752001B61EB0201001C41F580114908B6
:100350004FEA30000019514132462B4603B0BDE848
:10036000F04F00F08FB90098012240000023D0EB3D
:10037000020263EBE073009821464FEAE074B8EBA9
:10038000000061EB0401E9E783F000435BE781F0E3
:10039000004158E72DE9FE4F81EA030404F00044D0
:1003A00021F0004100944FF0000B23F0004350EA8D
:1003B00001045ED052EA03045BD0C3F30A54C1F3D4
:1003C0000A552C44A4F2F3340194A0FB0254C1F367
:1003D000130141F48011C3F3130343F4801301FBB1
:1003E000024400FB034E840A970A44EA815447EA18
:1003F0008357A4FB076802958D0A05FB07854FEA22
:10040000932C04FB0C542705029D4FEA065847EA3B
:100410001637B5EB08056EEB070C870E920E47EA10
:10042000811742EA8312A7FB0201B6EB0B0164EBD2
:1004300000042B0D43EA0C335E1844EB1C50DA46E3
:100440005146E7FB0201C5F313044FEA0B3343EABD
:1004500014534FEA0432019C43EA0603A4F10C044E
:100460000294009CCDE900B400F01BF903B0BDE894
:10047000F08F00200146F9E72DE9F04D81EA0304F1
:1004800004F0004B21F0004514464FF0000A23F021
:10049000004150EA050220D054EA01021DD0C5F304
:1004A0000A570246C5F31303C1F31300C1F30A56FA
:1004B00040F4801543F48013A7EB0608101BD646C2
:1004C00008F2FD3873EB050002D308F1010801E0E2
:1004D00092185B41B8F1000F03DA00200146BDE835
:1004E000F08D00204FF48011064684460EE0171B65
:1004F00073EB050705D3121B63EB050306434CEAB8
:10050000010C49084FEA300092185B4150EA01079C
:10051000EDD152EA030012D082EA040083EA050119
:10052000084305D0101BAB4106D20122002306E090
:1005300000224FF0004302E06FF0010253101AEB6B
:1005400006004CEB085110EB0A0041EB0B01BDE833
:10055000F04D00F097B800F0004230F000400AD0B3
:10056000C10D01F56071C0F3160042EA0151C208E5
:1005700040071143704700200146704701F00043D7
:1005800030B421F0004150EA010206D00A0DA2F574
:100590006072C1F31301002A02DC30BC00207047F6
:1005A000440F44EAC104C100E01830BC00EBC25063
:1005B00000F031B8202A04DB203A00FA02F10020D2
:1005C00070479140C2F1200320FA03F31943904091
:1005D0007047202A04DB203A21FA02F000217047FC
:1005E00021FA02F3D040C2F120029140084319469B
:1005F0007047202A06DBCB17203A41FA02F043EA83
:10060000E07306E041FA02F3D040C2F120029140CB
:100610000843194670470029A8BF7047401C49008D
:1006200008BF20F00100704710B4B0FA80FC00FA57
:100630000CF050EA010404BF10BC704749B1CCF182
:10064000200421FA04F411FA0CF118BF012121430E
:100650000843A3EB0C01CB1D4FEA00614FEA1020C9
:1006600042BF002010BC704700EBC350104400296B
:10067000A4BF10BC7047401C490008BF20F0010017
:1006800010BC704710B5141E73F1000408DA401C4A
:1006900041F1000192185B411A4301D120F00100A1
:1006A00010BD2DE9F04D92469B4611B1B1FA81F291
:1006B00002E0B0FA80F220329046FFF77BFF04465A
:1006C0000F4640EA0A0041EA0B0153465A460843E6
:1006D00013D0114653EA010019D0C8F14002504628
:1006E000FFF777FF05460E46504659464246FFF74C
:1006F00061FF084305D0012004E020463946BDE8EB
:10070000F08D0020054346EAE0762C4337430A98F3
:100710006305E40AA0EB08000022FD0A44EA4754FE
:100720000A3002D500200146E9E7010510196941A8
:10073000DDE9084500196941BDE8F04DA2E7000078
:10074000064C074D06E0E06840F0010394E807001E
:1007500098471034AC42F6D3FFF71AFD2C57000827
:100760004C570008FEE7000070470000EFF31080D0
:1007700072B600BFFEE7000070B5866D044600F05B
:100780003BF994F83510022925D105462068216CE3
:10079000026822F016020260426922F08002426181
:1007A00009B9A16C19B1016821F008010160016863
:1007B00021F00101016000BF20680068C0070ED071
:1007C00000F01AF9401B0628F6D3202060650320AC
:1007D00084F835000CE080206065012008E0E06DC1
:1007E0003F2101FA00F0B060012084F835000020BC
:1007F000002184F8341070BD90F83510022909D119
:10080000052180F835100068016821F001010160C0
:10081000002070478021416501207047B0B5044633
:1008200000F0EAF8054640F21800C2F20000007835
:10083000611C18BF044400BF00F0DEF8401BA0425A
:10084000FAD3B0BD2DE9F04F82B000F13E4241F63F
:10085000004502F1FF77C4F2020508224FEAB726ED
:10086000A84208BF0722072E38BF4FEAB7224FF031
:10087000010E002400274FF00009009209E000BF9C
:1008800009F101090237B9F1100F04F1040400F075
:10089000A4800A680EFA09FC12EA0C08F0D0D1F81C
:1008A00004B00BF0030AAAF10102012A14D88268ED
:1008B0000323CE6803FA07FE22EA0E02BE4032434B
:1008C00082604268CBF3001622EA0C0206FA09F6AF
:1008D0004FF0010E32434260BAF1030F1DD0C268DF
:1008E00003238D6803FA07F6B24305FA07F632438D
:1008F000BAF1020FC26010D16FF0030202EA59028E
:100900000244D2F820C004F01C050F230E69AB404E
:100910002CEA0303AE4033431362026803234E689C
:10092000BB409A4306F00303BB401A4316F4403F12
:100930000260A5D0002243F644030192C4F20203F0
:100940001A6843F6004C42F480421A601A68C4F2F6
:10095000010C02F480420192019A29F003024FF641
:10096000084A6244CFF6FF7A52F80A3004F00C06C7
:100970000F25B540AB43009D05FA06F6334342F818
:100980000A30DCF800204B6842EA0806DD0358BF55
:1009900022EA0806CCF80060DCF804209D0342EA55
:1009A000080658BF22EA0806CCF80460DCF80820E4
:1009B000DD0242EA080643F60C4558BF22EA080663
:1009C000CCF80860C4F201052A689B0242EA0806D6
:1009D00058BF22EA08062E6052E702B0BDE8F08F49
:1009E0000069084018BF012070470000002A08BFB6
:1009F000090481617047000040F65C00C2F200000B
:100A00000068704740F2180040F65C01C2F2000036
:100A1000C2F2000100780A681044086070470000C4
:100A200080B543F60040C4F20200016841F4007151
:100A30000160016841F480610160016841F48071E6
:100A40000160032000F088F80F2000F005F800F0A6
:100A50002BF8002080BD0000B0B540F21802C2F2B1
:100A6000000240F200011278C2F200014FF47A73E2
:100A70000968B3FBF2F20446B1FBF2F1084600F05C
:100A800029FB0F2C4FF001050CD858B94FF0FF305F
:100A900021460022002500F033F840F21C00C2F28B
:100AA000000004602846B0BD82B0002043F640013B
:100AB0000190C4F202014A6842F480424A604A68E6
:100AC00002F480420192019A0090086840F0805040
:100AD0000860086800F080500090009802B07047ED
:100AE000002848BF704700F01F01012202FA01F1FF
:100AF0004EF200124009CEF2000242F82010704778
:100B000010B54EF60C5CCEF2000CDCF80030C3F3EE
:100B1000022E8EF00704042C28BF0424BEF1030328
:100B20004FF0FF3E0EFA04F438BF0023A143994072
:100B30000EFA03F39A43114300F1604200F00F03F1
:100B4000090102F56442043B6344002848BF03F1F5
:100B50000C02117010BD00004EF60C51CEF20001D7
:100B60000A684FF6FF031A4060F30A2242F08060E1
:100B700040F0FD70086070472DE9F041002800F05A
:100B80008B8043F60808C4F202080446D8F8F8033C
:100B90000D4600F00700884207D288F8F853D8F8CD
:100BA000F80300F00700A84276D12068810717D526
:100BB000410705D5D8F8001041F4E051C8F80010FD
:100BC000010705D5D8F8001041F46041C8F80010BD
:100BD000D8F80010A26821F0F0011143C8F8001005
:100BE000C0073FD1D8F8F80300F00700A84207D9A2
:100BF00088F8F853D8F8F80300F00700A8424BD162
:100C00002068410707D5D8F80010E26821F4E051C8
:100C10001143C8F80010000708D5D8F80000216972
:100C200020F4604040EAC100C8F8000000F07CF801
:100C3000D8F8001044F6AE42C1F30311C0F600022A
:100C4000515C40F2000220FA01F140F21C00C2F2B5
:100C500000000068C2F200021160FFF7FDFE0020F4
:100C6000BDE8F0816068811E022907D258F8081C8F
:100C700089015CBF0120BDE8F08110E0012807D1A7
:100C800058F8081C89035CBF0120BDE8F08106E02C
:100C900058F8081C890702D40120BDE8F081D8F873
:100CA000001021F003010843C8F80000FFF7A4FE7C
:100CB000064641F2883700BFD8F80000616800F0AE
:100CC0000C00B0EB810F8DD0FFF796FE801BB84271
:100CD000F2D90320BDE8F08140F2000043F608019C
:100CE000C2F20000C4F202010068096844F6BE4284
:100CF000C1F38221C0F60002515CC8407047000079
:100D000040F2000043F60801C2F20000C4F2020102
:100D10000068096844F6BE42C1F34231C0F60002E1
:100D2000515CC8407047000010B543F60404C4F29B
:100D30000204606800F00C0008280AD0042819BFDB
:100D400042F20040C0F2F40047F64000C0F27D10CD
:100D500010BD206821682368490247F64001C0F2AF
:100D60007D1100F03F02C3F388105CBF42F20041E6
:100D7000C0F2F401A1FB00010023FFF721FA216872
:100D80000222C1F3014102EB4101B0FBF1F010BDC1
:100D90002DE9F04182B0002800F0A18004460078DF
:100DA00043F60006C007C4F2020643D0B06800F064
:100DB0000C00042805D1306880033BD56068C8BBAF
:100DC0008DE0B06800F00C00082802D17068400285
:100DD000F1D46568B5F5A02F0AD0B5F5803F0BD0EA
:100DE000306820F480303060306820F4802006E0E5
:100DF000306840F480203060306840F480303060EB
:100E0000FFF7FAFD002D054611D000BF30688003C2
:100E100010D4FFF7F1FD401B6428F7D920E100BF93
:100E2000FFF7EAFD401B64284FF0030054D83068F8
:100E30008003F5D4207880071AD5B06810F00C0F25
:100E400009D0B06800F00C00082840F08880706875
:100E5000400200F184803068800702D5E0680128F4
:100E60003DD13068216920F0F80040EAC1003060CF
:100E70002078000737D4207840074AD4A56955B3B5
:100E8000B06800F00C00082840F09C80012D26D0AE
:100E90007068E16900F480028A4220D1216A00F082
:100EA0003F028A421BD147F6C071626A0140B1EB32
:100EB000821F14D1A16A4FF6FF73C903994300F44E
:100EC0004032A1F580318A4209D1E16A00F07060B8
:100ED000B0EB016F03D1002002B0BDE8F08101202A
:100EE00002B0BDE8F0816069002840F20000C4F261
:100EF000472056D00121C0F8801EFFF77DFD054632
:100F0000706F8007B7D4FFF777FD401B0228F7D931
:100F1000A6E0306C10F080580AD100200190306CAF
:100F200040F080503064306C00F0805001900198A7
:100F300047F20007C4F200073868C00524D43868B7
:100F400040F480703860FFF757FD05463868C005EB
:100F50001AD4FFF751FD401B0228F7D980E0E06862
:100F6000002851D00020C4F2472001210160FFF782
:100F700043FD0546306880073FF573AFFFF73CFD42
:100F8000401B0228F6D96BE0A568052D50D0012D35
:100F900052D0306F20F001003067306F20F0040035
:100FA0004DE00021C0F8801EFFF726FD054600BF7A
:100FB000706F80077FF55FAFFFF71EFD401B0228B3
:100FC000F6D94DE00027C4F2472700203866FFF726
:100FD00013FD022D05460BD13068800158D5FFF76F
:100FE0000BFD401B02284FF00300F5D974E700BF4A
:100FF000306880017FF56FAFFFF7FEFC401B0228D1
:101000004FF00300F4D967E70020C4F24720002125
:101010000160FFF7F1FC0546306880077FF528AFD7
:10102000FFF7EAFC401B02284FF00300F4D953E716
:10103000306F40F004003067306F40F001003067DF
:10104000FFF7DAFC002D054641F2883714D000BFC7
:10105000306F800713D4FFF7CFFC401BB842F7D99D
:10106000032002B0BDE8F081FFF7C6FC401BB84288
:101070004FF003003FF630AF306F8007F4D4B8F183
:10108000000F7FF4FBAE306C20F080503064F5E64A
:1010900004F11C052FCD084340EA8210D9034FF616
:1010A000FF729143A1F5803140EA0560084370600A
:1010B00001203866FFF7A0FC044600BF30688001BD
:1010C0003FF509AFFFF798FC001B02284FF0030023
:1010D000F4D901E7411E0020B0EB116F1CBF0120C5
:1010E00070474EF21002CEF2000251604EF62351CC
:1010F000CEF20001F0230B70072190601160704761
:101100007047000070470000B0B590F83C20012AFD
:1011100004BF0220B0BD01F108053CCDD1E900CEED
:1011200023F47C5322F470521A432EF4F0431A43F2
:101130002CF4E0431A4324F4C0431A432A43C969F8
:1011400022F48042036811435964002180F83C1066
:101150000846B0BD10B590F83C20012A4FF00202BD
:1011600052D0012380F83C3080F83D200268D2F84C
:1011700004E0D2F808C00C682EF07003234341F25B
:10118000FF74C4F20004A24253600DDC40F2FF730E
:10119000C4F200039A4215DCB2F1804F29D040F22C
:1011A0000043C4F2000322E040F2FF33C4F2010323
:1011B0009A4212DC41F60003C4F200039A4218D0AE
:1011C000002312E040F60003C4F200039A4210D05C
:1011D00040F60043C4F2000309E044F20003C4F205
:1011E00001039A4205D040F20043C4F201039A423F
:1011F00004D149682CF08003194391600121002239
:1012000080F83D1080F83C20104610BD002804BF37
:101210000120704710B5044690F83D0028B9002021
:1012200084F83C00204600F01FF8022084F83D00BE
:101230002068211D03F08AF8012084F8460084F814
:101240003E0084F83F0084F8400084F8410084F8B0
:10125000420084F8430084F8440084F8450084F890
:101260003D00002010BD000080B582B0006843F64C
:10127000FF71C4F2010188421FDD44F20001C4F293
:101280000101884232D044F20041C4F20101884297
:101290003DD044F60001C4F20101884246D100204D
:1012A000019043F64400C4F20200016841F4802139
:1012B0000160006800F4802025E041F20041C4F2A2
:1012C0000001884234D00021C4F2010188422DD1AE
:1012D0000020019043F64400C4F20200016841F08E
:1012E00001010160006800F001000CE000200190A5
:1012F00043F64400C4F20200016841F48031016009
:10130000006800F480300190019802B080BD002098
:10131000019043F64400C4F20200016841F4003138
:101320000160006800F400300190019802B080BDB7
:101330000020019043F64400C4F2020050F8041C5F
:10134000002241F0200140F8041C50F8040C012157
:1013500000F02000019001983720FFF7D1FB3720E3
:1013600002B0BDE88040FFF7BBBB000090F83D1025
:1013700001291CBF01207047022180F83D10006840
:1013800041F2FF72C168C4F20002904241F00101D3
:10139000C1600DDC40F2FF71C4F20001884215DC2F
:1013A000B0F1804F29D040F20041C4F2000122E0A8
:1013B00040F2FF31C4F20101884212DC41F6000123
:1013C000C4F20001884218D0002112E040F600016A
:1013D000C4F20001884210D040F60041C4F200017E
:1013E00009E044F20001C4F20101884205D040F254
:1013F0000041C4F20101884206D1816801F0070171
:10140000062904BF00207047016841F00101016016
:101410000020704780B590F83C20012A4FF002026E
:1014200000F0C280012380F83C3080F83D20D0F8E5
:1014300000C04FF67772DCF8083023EA0202CCF8DD
:1014400008200B684F2B28DC1F2B43DD202B44D0BA
:10145000302B42D0402B40F0A980D1F804E0C9687D
:10146000DCF82030DCF8202022F00102CCF820202B
:10147000DCF8182022F0F00242EA011123F00A02FF
:1014800042EA0E02CCF81810CCF82020DCF8081044
:1014900041F0470121F030017DE06F2B25DDB3F5F0
:1014A000005F46D0B3F5805F77D0702B7ED1D1E955
:1014B00001E3C968DCF8082043EA0E0322F47F4206
:1014C00043EA01211143CCF80810DCF8081041F080
:1014D000770160E00BB1102B68D1DCF8081021F027
:1014E0007001194341F0070155E0502B34D0602BB7
:1014F0005CD1D1F804E0C968DCF8203023F0100397
:10150000CCF82030DCF81830DCF8202023F47043CD
:1015100022F0A00243EA013142EA0E12CCF8181080
:10152000CCF82020DCF8081041F0670121F0100110
:1015300031E0D1E901E3C968DCF8082043EA0E0391
:1015400022F47F4243EA01211143CCF80810DCF871
:10155000081041F480411EE0D1F804E0C968DCF8CD
:101560002030DCF8202022F00102CCF82020DCF82A
:10157000182022F0F00242EA011123F00A0242EAA6
:101580000E02CCF81810CCF82020DCF8081041F03E
:10159000570121F02001CCF808100022012180F829
:1015A0003D10002180F83C10104680BD0122F5E777
:1015B000002804BF012070472DE9F047044690F849
:1015C0003D000D4628B9002084F83C00204600F07C
:1015D00049F8022084F83D00206844F2070281683F
:1015E00091438160211D02F0B1FE20684FF6FF7823
:1015F00081688269D0F820C0D5E9003ED5E9026A49
:1016000043EA0109AB6922EA080246EA03234FF6DE
:10161000FC46B343D5E9076742EA0A0229691A433F
:1016200042EA062242EA01112CF0AA026B6942EA60
:101630000E0241EA073142EA0312C0F808908161C4
:101640000262012084F8460084F83E0084F83F00DE
:1016500084F8420084F8430084F83D000020BDE88F
:10166000F0870000F0B587B00068002100F140402D
:101670004FEAB02003280691CDE9041103910291AD
:1016800000F2AA80DFE800F0023E597E002543F612
:1016900030000195C4F20200016940F2004441F0BB
:1016A000010101610169C4F2020401F0010101912B
:1016B000019901950168022641F00101016001686C
:1016C000012701F00101019101990195016841F0A3
:1016D00002010160006802A900F002000190019877
:1016E0004FF400400290A4F58060CDE903650595B4
:1016F0000697FFF7A7F80820CDE90206CDE90455C3
:10170000069765E0002043F630010190C4F2020123
:101710000A6942F002020A610A6902F002020192B9
:10172000019A01900A6842F002020A60096801F019
:10173000020101910199302119E0002043F63001A6
:101740000190C4F202010A6942F004020A610A69C6
:1017500002F004020192019A01900A6842F002022A
:101760000A60096801F0020101910199C02102910A
:10177000022140F200440391049005900691C4F2C6
:10178000020425E0002043F630010190C4F202017A
:101790000A6942F008020A610A6902F0080201922D
:1017A000019A01900A6842F001020A60096801F09A
:1017B000010101910199032102910221CDE9031058
:1017C000CDE9050140F20040C4F20200A0F58064BA
:1017D00002A92046FFF736F807B0F0BD80B590F8B3
:1017E0003E2090F83F3090F842E090F843C0042942
:1017F00009D099B9012A4FF0010208BFBEF1010FCB
:101800002BD0104680BD012B4FF0010208BFBCF168
:10181000010FF6D1022280F83F2012E0012A4FF09A
:10182000010208BF012BECD1BEF1010FE9D1BCF1DF
:10183000010FE6D1022280F83E2080F83F2080F898
:10184000422080F8432004290ED081B901684FF06E
:10185000010C20316FF0010317E0022280F83E20D6
:1018600080F842200429F0D10168203109E00168A4
:1018700051F8202F22F001020A600A6842F00102AA
:101880000A604FF0100C6FF010030A681A400A60EB
:101890000A6842EA0C020A6000680022016841F00E
:1018A00001010160104680BD7047000010B504467C
:1018B00000680169890744BFC1685FEA81713FD44C
:1018C00020680169490744BFC1685FEA417143D498
:1018D00020680169090744BFC1685FEA017148D403
:1018E00020680169C90644BFC1685FEAC1614CD480
:1018F00020680169C9071CBFC1685FEAC17151D185
:1019000020680169090644BFC1685FEA016150D4DB
:1019100020680169490644BFC1685FEA41614FD44C
:1019200021680869800646BFC8685FEA806010BD0C
:101930006FF0200220460A61BDE81040FFF7E2BBCD
:101940006FF00201016101212177806980073ED09B
:101950002046FFF7A9FF40E06FF00401016102217A
:101960002177806910F4407F3AD02046FFF79CFF32
:101970003CE06FF00801016104212177C069800714
:1019800037D02046FFF790FF39E06FF0100101617A
:1019900008212177C06910F4407F33D02046FFF73B
:1019A00083FF35E06FF001010161204600F0FCFA91
:1019B000A6E76FF0800101612046FFF7A1FBA7E7D2
:1019C0006FF040010161204600F0E0FBA8E72046EF
:1019D00000F0E4F8204600F04DFA002020776FE791
:1019E000204600F0DBF8204600F044FA0020207783
:1019F0006EE7204600F0D2F8204600F03BFA0020C7
:101A000020776DE7204600F0C9F8204600F032FA52
:101A1000002020776CE7000080B586B0006843F6B0
:101A2000FF71C4F2010188424FF000010591CDE938
:101A30000311CDE901112BDC41F60001C4F20001D4
:101A4000884249D00021C4F20101884258D040F2B6
:101A50000041C4F20101884240F09E8000200090C5
:101A600043F63000C4F20200016841F00401016055
:101A70000068032100F00400009000984FF470709B
:101A8000019040F20040C4F2020000F580607AE06C
:101A900044F20001C4F20101884244D044F2004102
:101AA000C4F20101884257D044F60001C4F201019A
:101AB000884271D10020009043F63000C4F2020049
:101AC000016841F002010160006800F0020000902E
:101AD00000984FF4007050E00020009043F6300072
:101AE000C4F20200016841F00201016000680921AE
:101AF00000F00200009000984FF4404001903EE05A
:101B00000020009043F63000C4F20200016841F06A
:101B1000100101600068012100F0100000900098A1
:101B20004FF4D44010E00020009043F63000C4F29F
:101B30000200016841F0100101600068032100F01B
:101B40001000009000986020019040F20040C4F224
:101B5000020000F5406016E00020009043F63000DF
:101B6000C4F20200016841F002010160006800F067
:101B70000200009000984FF480700190032140F221
:101B80000040C4F20200022202920022059101A943
:101B9000CDE90322FEF756FE06B080BD7047000077
:101BA0002DE9F04390F83C30012B04BF0220BDE842
:101BB000F0834FEAB2020123032A80F83C3000F29E
:101BC000F580DFE802F0023E7DBD036840F2004789
:101BD0001A6A43F4806522F001021A621C6A1A46EE
:101BE000D3F804E052F818CF8E6824F00204C4F24F
:101BF0000107BD4244EA060405D1CE6824F00C0476
:101C000026F0040634430E68BD4207D1D1E90557DA
:101C10002EF4407E45EA0E0545EA070E2CF07307C8
:101C20003743C3F804E09F614F6809695F631C6232
:101C30009F6947F008079F619F6927F004079F612C
:101C4000B0E0036840F200481A6A43F4806522F06D
:101C500010021A621C6A1A46D3F804C052F818EF30
:101C60008F6824F02004C4F20108454544EA0714B3
:101C700007D1CF686FF0400624F0C00406EA0716CB
:101C80003443D1F80090454506D1D1E905562CF4EE
:101C900040672E4347EA860C2EF4E64747EA0927B9
:101CA000C3F804C09F614F6809699F631C629F6904
:101CB00047F400679F619F6927F480679F6170E028
:101CC000036840F200481A6A43F4806522F4807287
:101CD0001A621C6A1A46D3F804C052F81CEF8F68C7
:101CE00024F40074C4F20108454544EA072408D1ED
:101CF000CF6840F2FF463F0224F4406427EA06061C
:101D00003443D1F80090454506D1D1E905562CF46D
:101D100040572E4347EA061C2EF0730747EA09078F
:101D2000C3F804C0DF614F680969DF631C62DF69C3
:101D300047F00807DF61DF6927F00407DF6131E062
:101D4000036840F200451A6A43F4806722F4805227
:101D50001A621A46D3F820C05C6852F81CEFD1F81A
:101D600000808E68C4F20105AF4204D14D6924F4AD
:101D7000804444EA85142CF4005747EA06372EF4D1
:101D8000E64646EA08265C60DE614E6809691E6424
:101D90001F62DF6947F40067DF61DF6927F480674E
:101DA000DF6109021368194300231160002180F8E4
:101DB0003C101846BDE8F083002804BF012070479E
:101DC00010B5044690F83D0028B9002084F83C0086
:101DD000204600F01FF8022084F83D002068211DF5
:101DE00002F0B4FA012084F8460084F83E0084F83A
:101DF0003F0084F8400084F8410084F8420084F8F1
:101E0000430084F8440084F8450084F83D00002035
:101E100010BD000082B0006841F60001C4F200016C
:101E2000884216D040F20041C4F2010188421FD11D
:101E30000020019043F64000C4F20200416841F0E6
:101E400002014160406800F002000190019802B078
:101E500070470020009043F64000C4F20200016881
:101E600041F040010160006800F0400000900098DF
:101E700002B070477047000041B1082909D0042919
:101E800014BF00F1410200F13F0204E000F13E0204
:101E900001E000F140021278012A1CBF01207047C6
:101EA000022241B1082909D0042914BF80F8412039
:101EB00080F83F2004E080F83E2001E080F84020D8
:101EC000006801F01F010122036A02FA01F123EA0E
:101ED00001020262026A0A4341F2FF71C4F2000188
:101EE000884202620FDC40F2FF71C4F200018842B6
:101EF00017DCB0F1804F49D040F20041C4F200013C
:101F0000884243D049E040F2FF32C4F201029042DD
:101F100014DC41F60003C4F20003984236D00023DB
:101F200014E040F60001C4F2000188422ED040F6D1
:101F30000041C4F20001884228D02EE044F20003A0
:101F4000C4F20103984221D040F20043C4F20103DD
:101F5000984222D1436C884243F400434364C2DD7B
:101F6000904207DC41F60001C4F2000188420DD026
:101F7000002107E044F20001C4F20101884205D0CB
:101F800040F20041C4F20101884206D1816801F0AB
:101F90000701062904BF00207047016841F00101D4
:101FA000016000207047000040F2A061C2F2000111
:101FB000884218BF704770B52DED068B40F28054F3
:101FC000C2F200044FF6FF7021460022002501F006
:101FD000FFF840F24C40C2F20000216880ED000A98
:101FE00040F644004D62C2F200009FED668A9FED0C
:101FF000669AF0EE400A90ED000AB7EE00AAB0EE45
:10200000481AF0EE491AB0EE4A2A02F0D1FC40F22A
:10201000F0430146C2F20003002848BF414240F2AB
:10202000A8421B68C2F2000212680028184640F25B
:10203000C854C8BF10464163C8BF1A46C2F2000464
:1020400055634FF6FF702146002201F0C1F840F2BF
:102050005040C2F20000216880ED000A40F64800BE
:102060004D62C2F20000F0EE400A90ED000AB0EEC0
:10207000481AF0EE491AB0EE4A2A02F0F5FC40F296
:102080003071C2F20001012804DB0968886301F1A4
:10209000340004E009684042486301F1380040F22E
:1020A00010640025C2F2000405604FF6FF7021465F
:1020B000012201F08DF840F25440C2F20000216884
:1020C00080ED000A40F64C004D62C2F20000F0EED6
:1020D000400A90ED000A9FED2B1ADFED2B1AB7EEA8
:1020E000002A02F01DFD40F260450128C2F2000501
:1020F00004DB2968486301F1380004E029684042A4
:10210000886301F1340040F258640026C2F20004F2
:1021100006604FF6FF702146012201F059F840F2A7
:102120005840C2F20000216880ED000A40F65000DD
:102130004E62C2F20000F0EE400A90ED000A9FED00
:10214000111ADFED111AB7EE002A02F045FD012841
:1021500004DB2968086401F13C0004E0296840427E
:10216000C86301F140000021016040F65400C2F252
:102170000000016805310160BDEC068BBDE87040D0
:10218000704700BF00C05A46000048427047000038
:102190007047000070470000B0B582B00446006888
:1021A0000168C368426901F02F05202D03F0200566
:1021B00006D12DB1204602B0BDE8B04002F05EB9B4
:1021C0005FEA017C1EBF02F0010E03F4907212EB75
:1021D0000E0253D1226B012A05D111F0100218BF53
:1021E00013F0100236D10A0622D513F080021FD058
:1021F00094F83D1021293FD1A168B1F5805F03D14A
:102200002169002900F03F81216A4A1C2262097875
:102210004160E18C01390A04E1842DD1C16821F0CB
:102220008001C160C16841F04001C16002B0B0BD31
:10223000490621D513F040011ED0C16821F04001AC
:10224000C1602021204684F83D1002B0BDE8B040B6
:1022500000F004BA002101910168019141680191E7
:1022600001994069400611D4A08DE18DE28D002ACC
:1022700018BF884240F0DB8002B0B0BDC80718BF6D
:1022800013F4807045D1480749D44FE0A06B016832
:1022900049688AB2002AEFD0A38D9A42ECD2E18538
:1022A000C069B0F5807F30D0206850E8030F216806
:1022B00020F4807041E80302002AF5D1206850E83C
:1022C000050F216820F0010041E80502002AF5D140
:1022D000206850E8050F216820F0400041E8050221
:1022E000002AF5D1202084F83E000020206300BFA2
:1022F000206850E8030F216820F0100041E8030235
:10230000002AF5D1A06BFEF737FAA08DE18D401AB7
:10231000B2E0206C40F001002064480706D5BEF111
:10232000000F03D0206C40F002002064880706D51F
:10233000BEF1000F03D0206C40F004002064BCF11B
:10234000000F09D545EA0E00B0FA80F0400903D12C
:10235000206C40F008002064206C00283FF48CAF13
:1023600011F0200018BF002D02D0204602F086F8A0
:1023700020684069216C00F0400001F0080140181D
:1023800048D000BF206850E8030F216820F4907007
:1023900041E80302002AF5D1206850E8050F2168C2
:1023A00020F0010041E80502002AF5D1206B012848
:1023B0000AD100BF206850E8030F216820F0100008
:1023C00041E80302002AF5D1202084F83E000020D5
:1023D000206320684069400623D500BF206850E88C
:1023E000050F216820F0400041E80502002AF5D1E0
:1023F000A06BB0B144F27141C0F600010165FEF777
:10240000FBF900283FF438AFA06B016D02B0BDE8C6
:10241000B04008472046FFF7BDFE0020206402B010
:10242000B0BD204602B0BDE8B040FFF7B3BE401AD1
:10243000216851E8031F226821F4907142E80313D8
:10244000002BF5D1216851E8051F226821F0010118
:1024500042E80513002BF5D1202184F83E1000211D
:10246000216300BF216851E8031F226821F0100199
:1024700042E80313002BF5D181B2204602B0BDE83B
:10248000B040FFF785BE216A31F8022B6FF35F225F
:1024900042602162BDE60000002804BF01207047B1
:1024A00010B5044690F83D0028B9002084F83C009F
:1024B000204600F021F8242084F83D002068C168FF
:1024C00021F40051C160204602F038F8206801690B
:1024D00021F490410161416921F02A014161C16803
:1024E00041F40051C16000202021206484F83D1097
:1024F00084F83E1010BD000010B586B0006844F2AC
:102500000042C4F2000200219042CDE90411CDE95D
:102510000211019125D041F20001C4F2010188426B
:1025200052D1002043F630010090C4F202014A6902
:10253000252442F010024A614A6902F0100200921A
:10254000009A0090086840F00100086008684FF4A5
:10255000C06100F00100009000980020C4F2020069
:102560001EE043F630000091C4F202000269262406
:1025700042F400320261026902F400320092009AD1
:102580000091016841F0080101600068602100F0DD
:102590000800009000980020C4F2020000F540609E
:1025A000019102210291002103910321049107214D
:1025B000059101A9FEF746F9204600210022FEF709
:1025C0009FFA2046FEF78CFA06B010BD034690F83D
:1025D0003E0020280AD100294FF0010018BF002A30
:1025E00000D1704793F83C00012801D102207047C8
:1025F00000201863996222219A85DA85186483F88D
:102600003E10196883F83C00CA6842F48072CA60C0
:102610004A6942F001024A61CA6842F02002CA6077
:102620007047000080B5006844F20041C4F2000128
:10263000884206D140F65800C2F20000007801F04E
:1026400007F940F2BC7040F65801C2F20000C2F235
:1026500000010122BDE88040FFF7B8BF70470000CD
:10266000FEE700002DE9F04387B0002743F6300075
:102670000697CDE90477CDE902770197C4F202000D
:10268000016840F2000941F0100101600168C4F2E4
:10269000020901F01001019101990197016809F502
:1026A000406541F0010101600168002201F0010173
:1026B00001910199019701684FF4F04641F0020140
:1026C0000160016801F0020101910199019701681F
:1026D00041F008010160016801F0080101910199D0
:1026E0000197016841F00401016000684FF4F04176
:1026F00000F00400019001982846FEF777F948465B
:102700004FF4885100224FF48858FEF76FF9029673
:1027100002AE012428463146CDE903470597FEF76E
:1027200091F848463146CDE90284CDE90477FEF7B9
:1027300089F809F580503146CDE902470497FEF744
:1027400081F807B0BDE8F08380B588B040F2A840BA
:102750000021C2F2000044F2004244F61F6C0791CF
:10276000CDE90511CDE90311CDE90111C4F2010252
:102770001023C0E9021C01618021C0E900238161AE
:10278000FEF744FD002818BFFDF7F0FF40F2A84017
:10279000C2F20000FFF710FB002818BFFDF7E6FFAC
:1027A000602001900020CDE90200059040F2A84091
:1027B000C2F2000001A90022FFF7F2F9002818BFB9
:1027C000FDF7D4FF40F2A840C2F20000FFF724F961
:1027D00008B080BD80B588B040F2F0400021C2F260
:1027E000000044F6000244F61F6C0791CDE9051184
:1027F000CDE90311CDE90111C4F201021023C0E9B2
:10280000021C01618021C0E900238161FEF7FEFC0A
:10281000002818BFFDF7AAFF40F2F040C2F2000006
:10282000FFF7CAFA002818BFFDF7A0FF602001904B
:102830000020CDE90200059040F2F040C2F2000015
:1028400001A90022FFF7ACF9002818BFFDF78EFFA1
:1028500040F2F040C2F20000FFF7DEF808B080BDA1
:1028600010B588B040F2385041F60001C2F20000C5
:10287000C4F200010024102244F61F6380E8160011
:1028800080210794CDE90544CDE90344CDE9014415
:10289000C0E903348161FFF78FFA002818BFFDF704
:1028A00065FF6020CDE9010440F23850C2F200001B
:1028B00001A9002203940594FFF772F9002818BFBC
:1028C000FDF754FF40F23850C2F2000001A9042283
:1028D000FFF766F9002818BFFDF748FF40F23850AF
:1028E000C2F20000FFF798F808B010BD10B596B01E
:1028F00040F2604000220021C2F20000C4F2010256
:10290000102344F61F644FF0800C1591CDE913118C
:10291000CDE91111CDE90F11CDE90D11CDE90B1163
:10292000CDE90911CDE90711CDE90511CDE9031173
:10293000CDE90111C0E90023C0E90214C0E9041186
:10294000C0F818C0FEF762FC002818BFFDF70EFFA4
:102950004FF48050129040F26040C2F2000012A981
:10296000FEF758FD002818BFFDF700FF40F2604059
:10297000C2F20000FFF720FA002818BFFDF7F6FEAC
:1029800040F260400024C2F2000010A9CDE91044DA
:10299000FEF7E0FB002818BFFDF7E8FE6020CDE958
:1029A000090440F26040C2F2000009A90022CDE90A
:1029B0000B44CDE90D440F94FFF7F2F8002818BF3F
:1029C000FDF7D4FE40F26040C2F2000009A90422E3
:1029D000FFF7E6F8002818BFFDF7C8FE40F2604098
:1029E000C2F2000009A90822FFF7DAF8002818BF90
:1029F000FDF7BCFE40F26040C2F2000009A90C22C3
:102A0000FFF7CEF8002818BFFDF7B0FE00200590B4
:102A1000CDE90300CDE901004FF40051089040F2E8
:102A200060400691C2F2000001A9FEF76DFB00288C
:102A300018BFFDF79BFE40F26040C2F20000FEF7B7
:102A4000EBFF16B010BD0000B0B58CB003AC204653
:102A50002421FDF7EDFB40F280500025C2F200007A
:102A60004FF08041C0E90015802181610321CDE94B
:102A7000031501214FF6FF72CDE90515CDE90915C2
:102A80002146CDE90055C0E902520561CDE907555F
:102A90000B95FEF78DFD002818BFFDF767FE40F28D
:102AA0008050C2F200006946CDE90055FEF752FBA6
:102AB000002818BFFDF75AFE0CB0B0BDB0B58CB001
:102AC00003AC20462421FDF7B3FB40F2C85040F28E
:102AD00000410025C2F20000C4F20001C0E9001567
:102AE000802181610321CDE9031501214FF6FF7299
:102AF000CDE90515CDE909152146CDE90055C0E917
:102B000002520561CDE907550B95FEF751FD0028EE
:102B100018BFFDF72BFE40F2C850C2F20000694614
:102B2000CDE90055FEF716FB002818BFFDF71EFE85
:102B30000CB0B0BDB0B58CB003AC20462421FDF77D
:102B400077FB40F2106040F600010025C2F2000061
:102B5000C4F20001C0E90015802181610321CDE9A3
:102B6000031501214FF6FF72CDE90515CDE90915D1
:102B70002146CDE90055C0E902520561CDE907556E
:102B80000B95FEF715FD002818BFFDF7EFFD40F28D
:102B90001060C2F200006946CDE90055FEF7DAFA8E
:102BA000002818BFFDF7E2FD0CB0B0BDB0B58CB089
:102BB00003AC20462421FDF73BFB40F2586040F671
:102BC00000410025C2F20000C4F20001C0E9001576
:102BD000802181610321CDE9031501214FF6FF72A8
:102BE000CDE90515CDE909152146CDE90055C0E926
:102BF00002520561CDE907550B95FEF7D9FC002877
:102C000018BFFDF7B3FD40F25860C2F200006946FC
:102C1000CDE90055FEF79EFA002818BFFDF7A6FD86
:102C20000CB0B0BD10B582B040F2A06041F20041DE
:102C3000C2F20000C4F200010024032244F61F6324
:102C400080E816008021CDE90044C3608161FEF771
:102C5000DDFA002818BFFDF789FD40F2A060C2F23E
:102C600000006946CDE90044FEF774FA002818BF59
:102C7000FDF77CFD02B010BD10B592B040F2E860E7
:102C800040F200410024C2F20000C4F2010144F607
:102C90001F634FF0800C1194CDE90F44CDE90D4432
:102CA000CDE90B44CDE90944CDE90744CDE905441C
:102CB000CDE90344CDE90144102280E81600C0E9C3
:102CC0000334C0E9054CFFF777F8002818BFFDF77B
:102CD0004DFD40F2E860C2F2000010A9CDE91044B9
:102CE000FEF738FA002818BFFDF740FD6020099074
:102CF0000020CDE90A00CDE90C00CDE90E0040F23C
:102D0000E860C2F2000009A90022FEF749FF00288E
:102D100018BFFDF72BFD40F2E860C2F2000009A9E0
:102D20000422FEF73DFF002818BFFDF71FFD40F20B
:102D3000E860C2F2000009A90822FEF731FF00286E
:102D400018BFFDF713FD40F2E860C2F2000009A9C8
:102D50000C22FEF725FF002818BFFDF707FD002015
:102D60000590CDE90300CDE901004FF40051089032
:102D700040F2E8600691C2F2000001A9FEF7C4F932
:102D8000002818BFFDF7F2FC40F2E860C2F2000034
:102D9000FEF742FE12B010BD80B58CB040F230702C
:102DA0000021C2F2000044F2000244F61F6C0B91B5
:102DB000CDE90911CDE90711CDE90511CDE90311DF
:102DC000CDE90111C4F201021023C0E9021C016126
:102DD0008021C0E900238161FEF718FA002818BF9E
:102DE000FDF7C4FC4FF48050089040F23070C2F2FE
:102DF000000008A9FEF70EFB002818BFFDF7B6FC7F
:102E000040F23070C2F20000FEF7D6FF002818BF73
:102E1000FDF7ACFC602001900020CDE90200059098
:102E200040F23070C2F2000001A90022FEF7B8FEA5
:102E3000002818BFFDF79AFC40F23070C2F2000083
:102E400001A90422FEF7ACFE002818BFFDF78EFC96
:102E500040F23070C2F20000FEF7DEFD0CB080BD23
:102E600080B540F2787041F20001C2F20000C4F275
:102E7000010100234FF00C0C4FF4E13280E80E000A
:102E8000C0E90333C0E905C3C361FFF705FB0028B0
:102E900008BF80BDBDE88040FDF768BC80B540F24A
:102EA000BC7044F20041C2F20000C4F200010023F1
:102EB0004FF00C0C4FF4E13280E80E00C0E9033310
:102EC000C0E905C3C361FFF7E7FA002808BF80BD6A
:102ED000BDE88040FDF74ABCFEE70000B0B5012A1E
:102EE000B8BFB0BD40F6440340F6480440F64C0E6F
:102EF00040F6500CB1EE401AC2F200030025C2F2B7
:102F00000004C2F2000EC2F2000C00BF884209DCCD
:102F100011DB013A1D602560CEF80050CCF800505E
:102F2000F4D1B0BD83ED000A84ED001A8EED000AE5
:102F30008CED001AFEE783ED001A84ED000A8EED99
:102F4000001A8CED000A00BFFEE7000070B540F2E9
:102F5000A840C2F20000016800254D630021FEF781
:102F60008BFF40F2F040C2F2000001684D63002187
:102F7000FEF782FF40F23074C2F2000420680021A4
:102F800045632046FEF778FF2068042185632046CC
:102F9000FEF772FF40F26044C2F200042068002194
:102FA00045632046FEF768FF2068042185632046BC
:102FB000FEF762FF20680821C5632046FEF75CFF2C
:102FC00020680C2105642046FEF756FF40F2E864B5
:102FD000C2F20004206840F63401C1632046082193
:102FE000FEF74AFF206840F22621016420460C21AA
:102FF000FEF742FF206840F24651816320460421DB
:10300000FEF73AFF20684FF4FA7646632046002127
:10301000FEF732FF40F23855C2F20005286840F64C
:10302000FC01416328460021FEF726FF286840F294
:103030000E61816328460421FEF71EFF4FF4FA70EB
:10304000FDF7ECFB206840F2EE2141634FF4FA708B
:10305000FDF7E4FB20683C21466340F28050C2F259
:103060000000FEF7BBFB40F2C850C2F200003C215A
:10307000FEF7B4FB40F21060C2F200003C21FEF704
:10308000ADFB40F25860C2F200003C21BDE8704048
:10309000FEF7A4BB000000002DE9F04F81B02DED3C
:1030A000068B84B040F65401C2F2000100220128D0
:1030B0000A606CDBB0EE409A30EE200A10EE100A87
:1030C000B0EE41AAB0EE608AFDF745FA06460190DF
:1030D0001AEE100A0F460091FDF73DFA41EC100B75
:1030E00082468DED020B9DF80F009FED370B80F0AF
:1030F00080008DF80F008B46DDE9020154EC105B77
:103100002A462346FDF746F932463B468046894625
:10311000FDF799F8FDF732FA40F64401C2F20001DA
:1031200039EE480A086010EE100AFDF714FA064658
:103130000F464046494632463B46FDF784F8FDF7C8
:103140001DFA40F64801C2F2000108605046594697
:103150002A462346FDF71EF9DDE9003204460D46F6
:10316000FDF771F8FDF70AFA40F64C01C2F20001D2
:1031700008602046294632463B46FDF764F8FDF7D5
:10318000FDF940F65001C2F200010860FEE740F68A
:103190004400C2F20000026040F64800C2F20000A3
:1031A000026040F64C00C2F20000026040F650009F
:1031B000C2F2000002600A6004B0BDEC068B01B0F0
:1031C000BDE8F08F00BF00BF9A999999998968402E
:1031D0002DE9F0410968804691ED090A1746B8EEDD
:1031E000400A10EE100AFDF7B6F99FED2B0B55ECD7
:1031F000106B32462B46FDF73FF9FDF7BFF900EEA5
:10320000100ABDEEC01A044611EE100A632807DC4E
:10321000B1EE401A002F08BFB0EE410ABDE8F081C0
:10322000DFB12046FDF797F9044608F1010000EEF2
:10323000100AB8EEC00A10EE100A0D46FDF78BF921
:103240009FED170B53EC102BFDF716F902460B46BA
:1032500020462946FCF7F7FF18E008F1010000EED0
:10326000100AB8EEC00A10EE100AFDF774F93246E3
:103270002B46FDF701F9054620460E46FDF76BF992
:1032800002460B4628463146FDF77EF8FDF776F9F3
:1032900000EE100ABDE8F0816766666666661A4051
:1032A0006766666666661AC0FEE7000080B58D2018
:1032B000002100F09DFA1420002100F099FAAF20BF
:1032C0000021BDE8804000F093BA0000F0B581B065
:1032D00040F60044C4F2020420464FF4805100221C
:1032E0000025FDF783FB6420FDF798FA20464FF494
:1032F00080510122FDF77AFBAE20002100F078FA20
:10330000D520002100F074FA5020002100F070FA5E
:10331000A820002100F06CFA3F20002100F068FA9C
:10332000D320002100F064FA0020002100F060FAB0
:103330004020002100F05CFA8D20002100F058FAB6
:103340001420002100F054FA2020002100F050FA4F
:103350000220002100F04CFAA120002100F048FAE0
:10336000C020002100F044FADA20002100F040FAE9
:103370001220002100F03CFA8120002100F038FAF0
:10338000EF20002100F034FAD920002100F030FABB
:10339000F120002100F02CFADB20002100F028FAB7
:1033A0003020002100F024FAA420002100F020FAAF
:1033B000A620002100F01CFAAF20002100F018FA2E
:1033C00040F22000C2F20000A0F1080420460021D3
:1033D00080220346013A03F8085FFBD10131082936
:1033E00000F10100F4D10025A5F15000C0B2002188
:1033F00000F0FEF90020002100F0FAF91020002171
:1034000000F0F6F98026274617F8080F012100F092
:10341000EFF9013EF8D10135082D04F10104E3D1A3
:1034200001B0F0BD70B540F220050024C2F20005E5
:10343000A4F15000C0B2002100F0DAF90020002110
:1034400000F0D6F91020002100F0D2F96FF0070645
:10345000A819007A012100F0CBF90836B6F57E7F75
:10346000F6D10134082C05F1010508BF70BDDFE776
:103470002DE9F04F82B0002B00F09280203AD2B2BA
:1034800044F6C64602EB4207C0F6000606EB870785
:10349000019745F23A17C0F600074FF0000807EB16
:1034A00002124FF0070B0C46009205E001300C466B
:1034B00008F10108984573D0009A0C2B4244019FF3
:1034C00008BF07EB080216785FFA80FC002500BFF2
:1034D00072B2B2F1FF3F1FDD42B2002A54D4E2B211
:1034E0003F2A51D80B9FABEBD20E2BEA0402002FE0
:1034F0004FF0010707FA02FA40F220025FFA8EFE4F
:10350000C2F2000228D002EBCC0212F80E7027EAB9
:103510000A0702F80E7037E042B2002A34D4E2B251
:103520003F2A31D8ABEBD2090B9A2BEA0407002AC9
:103530004FF0010202FA07FE17D040F22002C2F259
:1035400000025FFA89FA02EBCC0717F80A9049EA01
:103550000E0207F80A2017E002EBCC0919F80E70EA
:1035600047EA0A0209F80E200EE040F22002C2F2F9
:1035700000025FFA89F902EBCC0717F8092022EA6A
:103580000E0207F8092000BF0134E2B2521A9A4233
:103590003FF48CAF7600072D05F1010598D387E73E
:1035A00002B0BDE8F08F00002DE9F04F83B0002B92
:1035B00002924DD082460C981C468B46591E4508F7
:1035C00000264FF000094FF00008019113E000BF02
:1035D0004FF0010905FB06A140F03002C8B2D2B29B
:1035E00059460C9B01270097FFF742FF0136A64280
:1035F00008F101082CD06FEA08002044010609D028
:10360000012100BF013801EB810102064FEA4101AF
:10361000F8D100E001210298B9F1000FB0FBF1F000
:103620004CF6CD41CCF6CC41A0FB01124FEAD201C1
:1036300001EB8101A0EB4100CCD10199B142C9DD80
:103640000028C5D105FB06A05946C0B22022C8E714
:1036500003B0BDE8F08F00002DE9F04F85B0904633
:103660001278002A00F0C080824640F22000C2F2A8
:1036700000000838002700900EE000BFDDF8088049
:10368000DDF804A018F8010F039900280AF1080AD0
:103690004FF0000700F0A8805FFA8AF07A2884BF14
:1036A0004FF0000A1031C8B23B282ED300990020F9
:1036B00080220B46013A03F8087FFBD1013008282D
:1036C00001F10101F4D1009D002400BFA4F15000DC
:1036D000C0B2002100F08CF80020002100F088F832
:1036E0001020002100F084F880262F4617F8080FDC
:1036F000012100F07DF8013EF8D10134082C05F1DC
:103700000105E3D14FF0000A002198F800005FFAAC
:1037100081F92038C0B24FF0000E0E46CDF8088077
:103720000490CDF804A0039108E000BF039E0AF1C5
:10373000010A0EF1010EBEF10C0F9FD0049844F661
:10374000C64100EB4000C0F6000101EB800010F81C
:103750000E705FFA8AF800224FFA8AF000284FF0C4
:1037600000005FFA86FC48BF012079B2BCF13F0F30
:103770004FF0000B88BF4FF0010BB1F1FF3F40EA63
:103780000B0013DD20BB072140F22003A1EBDC007E
:10379000C2F20003C0B203EBC803B1431C5C0125B5
:1037A00005FA01F124EA0101195411E080B9072159
:1037B00040F22003A1EBDC00C2F20003C0B203EB35
:1037C000C804B143235C012505FA01F119432154D2
:1037D0000136F0B2A0EB09000C28A7D07F00072A21
:1037E00002F10102B8D3A4E705B0BDE8F08F0000F4
:1037F00070B540F60044C4F202040A4605460029AA
:1038000020464FF4006118BF0122FDF7EFF80026B3
:1038100020464FF480410022FDF7E8F8E8B2C209E3
:1038200020464FF40051FDF7E1F820464FF4804167
:103830000122FDF7DBF86D00072E06F10106E7D344
:1038400020464FF400610122BDE87040FDF7CEB87C
:1038500080B540F2354CC2F2000C9CF800202C28B8
:1038600008BF002A1ED0122808BF012A2BD0023A16
:10387000062A88BF80BDDFE802F0043748596A7B1A
:103880008C0040F23441C2F200010A78531C0B70E4
:1038900040F22041C2F2000121F8120003208CF80E
:1038A000000080BD40F23443C2F2000319780122C7
:1038B0008CF800204A1C1A7040F22042C2F200022A
:1038C00022F8110080BD40F23442C2F200021378A7
:1038D00002218CF80010591C117040F22041C2F2F4
:1038E000000121F8130080BD40F23441C2F2000112
:1038F0000A78531C0B7040F22041C2F2000121F8FB
:10390000120004208CF8000080BD40F23441C2F265
:1039100000010A78531C0B7040F22041C2F20001F2
:1039200021F8120005208CF8000080BD40F23441DF
:10393000C2F200010A78531C0B7040F22041C2F21F
:10394000000121F8120006208CF8000080BD40F232
:103950003441C2F200010A78531C0B7040F220413E
:10396000C2F2000121F8120007208CF8000080BD8F
:1039700040F23441C2F200010A78531C0B7040F24D
:103980002041C2F2000121F8120008208CF800004A
:1039900080BD00225B288CF8002039D140F23441F0
:1039A000C2F20001097840F22042C2F2000202EBAA
:1039B000410322F8110040F25D4C13F80C1CC2F2D6
:1039C000000C13F80A2C8CF8001040F25E41C2F291
:1039D000000113F8080C0A7040F25C41C2F20001C9
:1039E00013F806EC087040F23C40C2F2000080F888
:1039F00000E013F8040C40F64101C2F20001087027
:103A000013F8020C40F64001C2F20001087080BDBC
:103A100040F22040C2F20000C0E90022C0E90222C8
:103A2000026180BD70470000704700002DE9F04F33
:103A300081B02DED068B40F21009C2F2000999ED1C
:103A4000000A9FEDD98A9FEDD99A80EE080A9FED72
:103A5000D8AA40F2992040F2E86448F21F58C2F216
:103A60000004C5F2EB1830EE090A20EE0A0ABDEE9A
:103A7000C00A10EE105A854218DC40F29A20401B12
:103A800050FB08F10A1102EBD177322107FB110636
:103A9000B5F51A7F08DC00BF20683235C5633220D7
:103AA000FCF7BCFE013FF7D1A81916E0A5F29A2059
:103AB00050FB08F10A1102EBD177322107FB110606
:103AC000B5F5337F08DB00BF2068323DC563322087
:103AD000FCF7A4FE013FF7D1A81B216840F2080AB9
:103AE000C863C2F2000A9AED000A002080EE080ABC
:103AF00040F23857C4F27010C2F20007C9F8000053
:103B000030EE090A20EE0A0ABDEEC00A10EE106A75
:103B1000B6F55E7F19DAC6F55E7050FB08F10A1142
:103B200002EBD175322105FB110B40F24630864283
:103B300008DC00BF3868323646633220FCF76EFE80
:103B4000013DF7D106EB0B0018E0A6F55E7050FBC7
:103B500008F10A1102EBD175322105FB110B40F27D
:103B6000AA30864208DB00BF3868323E4663322006
:103B7000FCF754FE013DF7D1A6EB0B00396840F28B
:103B8000000B4863C4F20C2B40F2DC50CAF800B0C2
:103B9000FCF744FE99ED000A80EE080A30EE090AAF
:103BA00020EE0A0ABDEEC00A10EE105AB5F5507F9D
:103BB00018DC40F24130401B50FB08F10A1102EBC7
:103BC000D177322107FB1106B5F5447F08DA00BF33
:103BD00020683235C5636420FCF720FE013FF7D131
:103BE000A81916E0A5F2413050FB08F10A1102EBCA
:103BF000D177322107FB110640F27330854207DB93
:103C00002068323DC5636420FCF708FE013FF7D110
:103C1000A81B216840F20C0AC863C2F2000A9AEDA0
:103C2000000A002080EE080AC4F2F010C9F8000073
:103C300030EE090A20EE0A0ABDEEC00A10EE106A44
:103C4000B6F55E7F18DAC6F55E7050FB08F10A1112
:103C500002EBD175322105FB110740F24630864256
:103C600008DC00BF2068323606646420FCF7D6FD0D
:103C7000013DF7D1F01916E0A6F55E7050FB08F192
:103C80000A1102EBD175322105FB110740F2AA306F
:103C9000864207DB2068323E06646420FCF7BEFDE6
:103CA000013DF7D1F01B2168086440F2DC50CAF8EE
:103CB00000B0FCF7B3FD40F2384AC2F2000A9AEDB8
:103CC000000A40F2D12080EE080A30EE090A20EE08
:103CD0000A0ABDEEC00A10EE105A854218DC40F206
:103CE000D220401B50FB08F10A1102EBD1763221A1
:103CF00006FB1107B5F5287F08DC00BF20683235C8
:103D000045636420FCF78AFD013EF7D1E81916E00F
:103D1000A5F2D22050FB08F10A1102EBD176322134
:103D200006FB1107B5F5417F08DB00BF2068323D77
:103D300045636420FCF772FD013EF7D1E81B216862
:103D400040F214094863C2F2000999ED000A40F2FA
:103D5000622080EE080A30EE090A20EE0A0ABDEE63
:103D6000C00A10EE105A854240F20000C4F2A010C2
:103D7000CAF800001EDC40F26320401B50FB08F133
:103D80000A1102EBD177322107FB110640F23120F4
:103D9000854207DC2068323585636420FCF73EFDF0
:103DA000013FF7D1A8191CE00000E144CDCCCC3C88
:103DB00000409C46A5F2632050FB08F10A1102EB7B
:103DC000D177322107FB1106B5F5257F08DD00BF4D
:103DD0002068323D85636420FCF720FD013FF7D168
:103DE000A81B216888630021C4F2201140F2DC5036
:103DF000C9F80010BDEC068B01B0BDE8F04FFCF730
:103E00000DBD00002DE9F04F81B02DED068B40F285
:103E10000809C2F2000999ED000A9FEDE28A9FEDC0
:103E2000E29A80EE080A9FEDE1AA40F6E40040F233
:103E3000385548F21F5BC2F20005C5F2EB1B30EEAD
:103E4000090A20EE0A0ABDEEC00A10EE106A864288
:103E500018DC40F6E500801B50FB0BF10A1102EB69
:103E6000D177322107FB110440F6B300864207DC0C
:103E70002868323646636420FCF7D0FC013FF7D156
:103E8000301916E0A6F6E50050FB0BF10A1102EB23
:103E9000D177322107FB110440F61710864207DB69
:103EA0002868323E46636420FCF7B8FC013FF7D136
:103EB000301B296840F210084863C2F2000898EDF0
:103EC000000A002080EE080A40F2E866C4F22030C2
:103ED000C2F20006C9F8000030EE090A20EE0A0A14
:103EE000BDEEC00A10EE104AB4F5FA6F19DAC4F547
:103EF000FA6050FB0BF10A1102EBD177322107FB7C
:103F0000110A40F29E70844208DC00BF30683234EF
:103F1000C4636420FCF782FC013FF7D104EB0A0084
:103F200018E0A4F5FA6050FB0BF10A1102EBD1770F
:103F3000322107FB110A40F60200844208DB00BF71
:103F40003068323CC4636420FCF768FC013FF7D161
:103F5000A4EB0A003168C8630020C4F20730C8F837
:103F600000004FF47A70FCF759FC40F20400C2F2F2
:103F7000000090ED000A40F6C31080EE080A30EE13
:103F8000090A20EE0A0ABDEEC00A10EE107A874236
:103F900019DC40F6C410C01B50FB0BF10A1102EBF8
:103FA000D174322104FB110A40F69210874207DCDB
:103FB0002868323787636420FCF730FC013CF7D176
:103FC00007EB0A0018E0A7F6C41050FB0BF10A112A
:103FD00002EBD174322104FB110A40F6F61087423D
:103FE00008DB00BF2868323F87636420FCF716FCBB
:103FF000013CF7D1A7EB0A002968886399ED000A14
:1040000040F2DB5080EE080A40F20401C2F20001E7
:1040100030EE090A20EE0A0ABDEEC00A10EE107A50
:10402000874240F20000C4F23430086019DC40F2EC
:10403000DC50C01B50FB0BF10A1102EBD174322192
:1040400004FB110A40F2AA50874207DC2868323785
:1040500047636420FCF7E2FB013CF7D107EB0A0061
:1040600018E0A7F2DC5050FB0BF10A1102EBD174FF
:10407000322104FB110A40F20E60874208DB00BFC8
:104080002868323F47636420FCF7C8FB013CF7D146
:10409000A7EB0A00296840F2000A4863C4F2B42A78
:1040A0004FF47A70C9F800A0FCF7B8FB40F2384929
:1040B000C2F2000999ED000A80EE080A30EE090A02
:1040C00020EE0A0ABDEEC00A10EE104AB4F5FA7FDF
:1040D00017DAC4F5FA7050FB0BF10A1102EBD17735
:1040E000322107FB1108B4F5E17F07DC3068323478
:1040F00044636420FCF792FB013FF7D104EB080016
:1041000018E0A4F5FA7050FB0BF10A1102EBD1781C
:10411000322108FB110740F22620844209DB00BF50
:104120003068323C44636420FCF778FBB8F1010846
:10413000F6D1E01B316848630020C9F800004FF455
:104140007A70FCF76BFB40F20C09C2F2000999EDA2
:10415000000A40F2DB5080EE080A30EE090A20EE39
:104160000A0ABDEEC00A10EE104A844220DC40F27A
:10417000DC50001B50FB0BF10A1102EBD17732210E
:1041800007FB110840F2AA50844207DC3068323441
:1041900004646420FCF742FB013FF7D104EB080004
:1041A0001EE000BF0000E144CDCCCC3C00409C466A
:1041B000A4F2DC5050FB0BF10A1102EBD177322153
:1041C00007FB110840F20E60844207DB3068323C86
:1041D00004646420FCF722FB013FF7D1A4EB080044
:1041E0003168086440F20400C2F2000090ED000A59
:1041F00040F2DB5080EE080AC9F800A030EE090A50
:1042000020EE0A0ABDEEC00A10EE104A84421ADC03
:1042100040F2DC50001B50FB0BF10A1102EBD1778E
:10422000322107FB110840F2AA50844208DC00BF8B
:104230002868323484636420FCF7F0FA013FF7D138
:1042400004EB080018E0A4F2DC5050FB0BF10A115B
:1042500002EBD177322107FB110840F20E60844255
:1042600008DB00BF2868323C84636420FCF7D6FA80
:10427000013FF7D1A4EB08002968886399ED000A93
:1042800040F2622080EE080A30EE090A20EE0A0AA7
:10429000BDEEC00A10EE104A844240F20400C2F2A1
:1042A0000000C0F800A019DC40F26320001B50FBA6
:1042B0000BF10A1102EBD177322107FB110540F215
:1042C0003120844208DC00BF30683234046464204A
:1042D000FCF7A4FA013FF7D1601916E0A4F26320BD
:1042E00050FB0BF10A1102EBD177322107FB1105CC
:1042F000B4F5257F08DD00BF3068323C04646420DB
:10430000FCF78CFA013FF7D1601B3168086400208C
:10431000C4F22010C9F80000BDEC068B01B0BDE866
:10432000F04FFEF713BE0000FCF76CBB4EF6885052
:10433000CEF20000016841F4700101607047000096
:1043400040F2A060C2F20000FDF7B0BA10B540F62E
:10435000FF3E0368C4F2000E40F2004C7045C4F208
:10436000010C0FDCB0F1804F19D040F20042C4F2D2
:104370000002904213D040F60002C4F200029042C4
:104380000DD010E040F60042C4F20002904206D088
:10439000604504D00022C4F20102904203D14A6871
:1043A00023F07003134341F6FF72C4F200029042FF
:1043B0000DDC70451FDCB0F1804F41D040F200426F
:1043C000C4F2000290423BD040F6000221E043F6E6
:1043D000FF72C4F20102904220DC42F20002C4F2F9
:1043E000000290422CD00022C4F20102904227D059
:1043F000604525D028E040F60042C4F20002904219
:104400001ED041F60002C4F20002904218D041F6DC
:104410000042C4F20002904212D015E044F20002C1
:10442000C4F2010290420BD044F60002C4F2010231
:10443000904205D044F20042C4F20102904203D1FE
:10444000CA6823F44073134323F080024B69D1F808
:1044500000E08C681A430260C46240F48062C0F8D5
:1044600028E0624504BF096901630121416110BD73
:10447000806B0021C185C184FDF78CBE81B090F8AE
:104480003E1022291DD18268B2F5805F02D10169F8
:10449000002946D0816AB2F5805F07D00AB9026967
:1044A00022B10268526802F07F0201E0026852689D
:1044B0000A70816A01318162C18D01390A04C185A6
:1044C00001D001B070470168CA6822F02002CA60BA
:1044D000CA6822F48072CA604A6922F001024A6105
:1044E000202180F83E10016B012923D100210163B6
:1044F000016851E8031F026821F0100142E803132C
:10450000002BF5D101680A68D20606D50022009278
:104510000A680092496800910099818D01B0FDF709
:1045200037BE0168826A49686FF35F2122F8021B77
:104530008262C1E701B0FEF775B8000010B504460D
:104540000068D4E902C22369016921F44051114392
:104550000161626943EA0C01E3691143C2681943CE
:1045600049F20C639A431143C1604169A26921F485
:10457000407141F20043114340F48062C4F20103F0
:104580009A42416102D1FCF7BBFB01E0FCF7A4FBBE
:10459000E16963681922B1F5004FA0FB020121D146
:1045A0005A00DB0FFBF70CFE48F21F51C5F2EB116E
:1045B000A0FB01235A094FF69C73C0F6FF7303F169
:1045C000805302FB0300322303EBC000A0FB010178
:1045D0004FF4F87000EA111000EB0210C1F3421121
:1045E00008441DE09A009B0FFBF7EAFD48F21F51BB
:1045F000C5F2EB11A0FB01235A094FF69C73C0F6DC
:10460000FF7302FB0300322303EB0010A0FB010148
:10461000F02000EA511000EB0210C1F343110844EE
:104620002168886010BD000040F27870C2F200007E
:10463000FDF7B2BD40F2BC70C2F20000FDF7ACBDA8
:10464000FEE7000094B047F20006C4F20006FCF753
:10465000E7F908AC20463021FBF7EAFD002543F6D8
:1046600040000795CDE90555CDE903550295C4F203
:104670000200016841F080510160006800F0805044
:10468000029002980295306840F4804030603068B3
:1046900000F48040029002980220089001200B90C4
:1046A00010200C9020460E95FCF772FB18B1EFF32A
:1046B000108072B6FEE70F20CDE9030503A80021A4
:1046C000CDE905550795FCF757FA20B1EFF31080B7
:1046D00072B600BFFEE7FDF7C5FFFEF735F8FEF73F
:1046E00079F8FEF759FBFEF701F9FEF7ADF9FEF791
:1046F000E5F9FEF71FFAFEF759FAFEF7B1FBFEF7F0
:10470000AFF8FEF7CBFBFEF7B7FAFEF78BFAFEF732
:104710001DFC40F2A060C2F20000FCF727FEFEF78D
:10472000D5FDFEF7C3FD40F25C4940F6410540F679
:10473000400A40F6340B40F600079FED9A8A9FED41
:104740009A9A9FED9ABA4FF00C08C2F20009C2F291
:104750000005C2F2000AC2F2000BC2F20007B7EE77
:1047600000AA02E000203860264640F2BC7040F605
:104770005801C2F20000C2F200010122FDF726FF3B
:10478000FEF750FE40F25D40C2F2000002780020C9
:1047900000210323CDF80080FEF706FF40F25E40C3
:1047A000C2F20000027800200F210323CDF8008020
:1047B000FEF7FAFE99F8002000201E210323CDF811
:1047C0000080FEF7F1FE40F23C40C2F200000278A9
:1047D00000202D210323CDF80080FEF7E5FE2A7886
:1047E0001E2000210123CDF80080FEF7DDFE9AF89F
:1047F00000201E200F210123CDF80080FEF7D4FEFB
:10480000DBF800201E201E210123CDF80080FEF7DA
:10481000CBFEDBF804202D201E210123CDF80080E3
:10482000FEF7C2FEDBF808203C201E210123CDF854
:104830000080FEF7B9FE344606F5D0363046012139
:10484000FCF7CEF880B93220FBF7E8FF30460121B3
:10485000FCF7C6F80028F9D03220FBF7DFFF3868F4
:10486000B0FA80F0400938603868264600283FF4E6
:104870007CAF9AF8000006280AD8DFE800F07F0431
:1048800014191E262E000120CBF80000022020E083
:10489000002000213AA2FEF7DFFE002014213EA2F4
:1048A000FEF7DAFE22E00120CBF80000032008E04A
:1048B0000320CBF80000022013E00320CBF8000017
:1048C0000120CBF8040002200EE00220CBF800000B
:1048D0000120CBF80400032006E00220CBF8000002
:1048E0000320CBF804000120CBF8080006F5C836F9
:1048F00030464FF480710122FCF778F84FF4FA70DB
:10490000FBF78CFF30464FF480710022FCF76EF805
:1049100040F2E240B0EE480AF0EE480AB0EE491A22
:10492000FEF7BAFB4FF4FA70FBF778FF4FF47A709A
:10493000B0EE480AF0EE4A0AB0EE481AFEF7ACFBB9
:104940002878DBF80010814240F24041C2F20001B9
:1049500008607FF407AF40F25D40C2F200000078CB
:1049600099F80010B0EE4B0A084464210322FEF7C8
:10497000B5FAFFF75BF8FFF745FAF3E6FEE700BF8D
:10498000456E7465722061206E756D62657220627D
:1049900065747765656E00003120616E6420362095
:1049A00021000000000000000AD7A33B9A99993E1D
:1049B000B1EE043A83EE214A32EE026A82EE035AE5
:1049C00086EE036A21EE022A82EE032AB7EE007A0F
:1049D00040F60C00C2F2000040F6040130EE600A1E
:1049E000C2F2000140F60802C2F2000234EE074AA9
:1049F00034EE054A36EE073A24EE014A23EE011A58
:104A000090ED003A24EE004A91ED005A34EE033A5C
:104A100092ED004A21EE051A33EE411A22EE042AE5
:104A20009FED0F3A32EE011A9FED0E2AB4EE431AB3
:104A3000F1EE10FAC8BFB0EE431AB4EE421AF1EE2E
:104A400010FAB8BFB0EE421A80ED001ABDEEC11ADE
:104A500011EE100A82ED005A81ED000A704700BF86
:104A6000003E9C46003E9CC6B1EE043A83EE214ACD
:104A700032EE026A82EE035A86EE036A21EE022AC1
:104A800082EE032AB7EE007A40F61800C2F2000068
:104A900040F6100130EE600AC2F2000140F6140246
:104AA000C2F2000234EE074A34EE054A36EE073A07
:104AB00024EE014A23EE011A90ED003A24EE004A5A
:104AC00091ED005A34EE033A92ED004A21EE051AB8
:104AD00033EE411A22EE042A9FED0F3A32EE011A0C
:104AE0009FED0E2AB4EE431AF1EE10FAC8BFB0EEF5
:104AF000431AB4EE421AF1EE10FAB8BFB0EE421A01
:104B000080ED001ABDEEC11A11EE100A82ED005AB6
:104B100081ED000A704700BF003E9C46003E9CC6E7
:104B2000B1EE043A83EE214A32EE026A82EE035A73
:104B300086EE036A21EE022A82EE032AB7EE007A9D
:104B400040F62400C2F2000040F61C0130EE600A7C
:104B5000C2F2000140F62002C2F2000234EE074A1F
:104B600034EE054A36EE073A24EE014A23EE011AE6
:104B700090ED003A24EE004A91ED005A34EE033AEB
:104B800092ED004A21EE051A33EE411A22EE042A74
:104B90009FED0F3A32EE011A9FED0E2AB4EE431A42
:104BA000F1EE10FAC8BFB0EE431AB4EE421AF1EEBD
:104BB00010FAB8BFB0EE421A80ED001ABDEEC11A6D
:104BC00011EE100A82ED005A81ED000A704700BF15
:104BD000003E9C46003E9CC6B1EE043A83EE214A5C
:104BE00032EE026A82EE035A86EE036A21EE022A50
:104BF00082EE032AB7EE007A40F63000C2F20000DF
:104C000040F6280130EE600AC2F2000140F62C02A4
:104C1000C2F2000234EE074A34EE054A36EE073A95
:104C200024EE014A23EE011A90ED003A24EE004AE8
:104C300091ED005A34EE033A92ED004A21EE051A46
:104C400033EE411A22EE042A9FED0F3A32EE011A9A
:104C50009FED0E2AB4EE431AF1EE10FAC8BFB0EE83
:104C6000431AB4EE421AF1EE10FAB8BFB0EE421A8F
:104C700080ED001ABDEEC11A11EE100A82ED005A45
:104C800081ED000A704700BF003E9C46003E9CC676
:104C900002E008C8121F08C1002AFAD17047704705
:104CA000002001E001C1121F002AFBD17047000063
:104CB00000000000000001020304060708090000CC
:104CC00000000102030400000000000000000000DA
:104CD0000000000000003F40000000000000000055
:104CE0003000400030004000000009000BC03D00D3
:104CF0000BC03D00090018C024407FE022403180F5
:104D00000000180024C01B000D8032400180038089
:104D10001C4027401C80074000401000600000003D
:104D20000000000000000000000000001F80204084
:104D300040200000402020401F80000000000900AB
:104D400006001F80060009000000040004003F80E8
:104D500004000400000000100060000000000000DB
:104D6000000004000400040004000400000000002F
:104D700000400000000000000000002001C006000C
:104D80003800400000001F802040204020401F804D
:104D90000000000010403FC000400000000018C0AC
:104DA0002140224024401840000010802040244030
:104DB00024401B80000002000D0011003FC0014094
:104DC00000003C80244024402440238000001F80B9
:104DD000244024403440038000003000200027C0DD
:104DE0003800200000001B802440244024401B8009
:104DF00000001C0022C0224022401F800000000052
:104E000000000840000000000000000000000460F6
:104E1000000000000000000004000A0011002080D3
:104E200040400900090009000900090000000000D5
:104E30004040208011000A00040018002000234098
:104E40002400180000001F802040274029401F40F8
:104E50000000004007C039000F0001C000402040A2
:104E60003FC0244024401B8000001F802040204081
:104E700020403080000020403FC0204020401F8064
:104E8000000020403FC024402E4030C000002040A1
:104E90003FC024402E00300000000F001080204052
:104EA00022403380020020403FC0040004003FC085
:104EB0002040204020403FC02040204000000060B3
:104EC000202020203FC02000200020403FC0244060
:104ED0000B0030C0204020403FC020400040004038
:104EE00000C03FC03C0003C03C003FC00000204069
:104EF0003FC00C4023003FC020001F8020402040C6
:104F000020401F80000020403FC0244024001800A3
:104F100000001F802140214020E01FA00000204011
:104F20003FC02440260019C0004018C0244024403F
:104F3000224031800000300020403FC0204030003F
:104F4000000020003F80004000403F802000200003
:104F50003E0001C0070038002000380007C03C00B8
:104F600007C038000000204039C0060039C020408A
:104F700000002000384007C03840200000003040CA
:104F800021C02640384020C00000000000007FE023
:104F9000402040200000000070000C000380004012
:104FA00000000000402040207FE0000000000000E2
:104FB0002000400020000000000000100010001041
:104FC0000010001000100000000040000000000071
:104FD0000000000002800540054003C000402000A2
:104FE0003FC00440044003800000000003800440F0
:104FF00004400640000000000380044024403FC0FD
:105000000040000003800540054003400000000010
:1050100004401FC0244024402000000002E005504E
:1050200005500650042020403FC00440040003C047
:1050300000400000044027C00040000000000010B5
:105040000010041027E00000000020403FC0014095
:10505000070004C00440204020403FC00040004002
:10506000000007C0040007C0040003C000000440A3
:1050700007C00440040003C0004000000380044057
:10508000044003800000041007F004500440038033
:105090000000000003800440045007F000100440AA
:1050A00007C0024004000400000000000640054064
:1050B000054004C00000000004001F8004400040C0
:1050C0000000040007800040044007C000400400C6
:1050D000070004C0018006000400060001C00700AC
:1050E00001C006000000044006C0010006C00440E4
:1050F00000000410071004E0018006000400000016
:10510000044005C006400440000000000000040008
:105110007BE040200000000000000000FFF00000E5
:105120000000000040207BE0040000000000400080
:10513000800040002000200040000000000000002F
:10514000000000000000000000000000000000005F
:105150001FCC000C00000000000000000800300020
:1051600060000800300060000000022003FC1E20E8
:10517000022003FC1E200220000000000E18110473
:105180003FFF10840C78000000000F0010840F38DF
:1051900000C0077818840078000000780F8410C4DD
:1051A00011240E9800E400840008080068007000D4
:1051B00000000000000000000000000000000000EF
:1051C00007E01818200440020000000040022004FC
:1051D000181807E0000000000000024002400180B3
:1051E0000FF001800240024000000080008000803B
:1051F0000FF800800080008000000001000D000E0C
:10520000000000000000000000000000008000809E
:10521000008000800080008000800000000C000CF6
:105220000000000000000000000000000006001860
:1052300000600180060018002000000007F0080848
:1052400010041004080807F0000000000804080417
:105250001FFC000400040000000000000E0C1014ED
:105260001024104411840E0C000000000C181004CF
:105270001104110412880C700000000000E00320EB
:10528000042408241FFC0024000000001F98108440
:1052900011041104108810700000000007F0088845
:1052A0001104110418880070000000001C00100098
:1052B00010FC13001C001000000000000E38114408
:1052C0001084108411440E38000000000700088C80
:1052D00010441044088807F000000000000000009F
:1052E000030C030C0000000000000000000000019F
:1052F00001060000000000000000000000800140E6
:1053000002200410080810040000022002200220DD
:1053100002200220022002200000000010040808E1
:105320000410022001400080000000000E00120066
:10533000100C106C10800F00000003E00C1813E438
:10534000142417C4082807D000000004003C03C43C
:105350001C40074000E4001C000410041FFC110462
:10536000110411040E880070000003E00C181004F2
:105370001004100410081C10000010041FFC10047E
:1053800010041004080807F0000010041FFC1104AA
:10539000110417C410040818000010041FFC1104A5
:1053A000110017C010000800000003E00C181004E2
:1053B000100410441C780040000010041FFC1084EE
:1053C0000080008010841FFC1004000010041004F2
:1053D0001FFC100410040000000000030001100175
:1053E00010011FFE10001000000010041FFC11042B
:1053F00003801464181C1004000010041FFC100427
:10540000000400040004000C000010041FFC1F0036
:1054100000FC1F001FFC1004000010041FFC0C0403
:10542000030000E010181FFC100007F0080810042B
:1054300010041004080807F0000010041FFC10847A
:105440001080108010800F00000007F00818102452
:105450001024101C080A07F2000010041FFC11049D
:10546000110011C011300E0C000400000E1C1104BC
:105470001084108410441C38000018001000100420
:105480001FFC100410001800000010001FF810048A
:105490000004000410041FF8100010001E0011E0AA
:1054A000001C007013801C0010001FC0103C00E0A6
:1054B0001F0000E0103C1FC000001004180C163440
:1054C00001C001C01634180C100410001C00130495
:1054D00000FC13041C00100000000804101C1064E1
:1054E000108413041C0410180000000000000000C9
:1054F0007FFE4002400240020000000030000C002D
:1055000003800060001C0003000000004002400215
:1055100040027FFE000000000000000000002000AC
:105520004000400040002000000000010001000198
:1055300000010001000100010001000040004000E6
:10554000200000000000000000000000009801247E
:1055500001440144014400FC000410001FFC0088C9
:105560000104010400880070000000000070008841
:10557000010401040104008800000000007000889C
:105580000104010411081FFC0004000000F801449C
:1055900001440144014400C800000000010401046A
:1055A0000FFC1104110411001800000000D601299D
:1055B0000129012901C90106000010041FFC008413
:1055C00001000100010400FC0004000001041904B2
:1055D00019FC0004000400000000000000030001AA
:1055E0000101190119FE0000000010041FFC002435
:1055F000004001B4010C010400000000100410047C
:105600001FFC0004000400000000010401FC010470
:10561000010001FC0104010000FC010401FC008404
:1056200001000100010400FC0004000000F8010476
:1056300001040104010400F80000010101FF0085DC
:105640000104010400880070000000000070008860
:1056500001040104010501FF00010104010401FC32
:1056600000840104010001800000000000CC01243E
:105670000124012401240198000000000100010020
:1056800007F80104010400000000010001F8000413
:1056900000040004010801FC000401000180017005
:1056A000000C001001600180010001F0010C0030CD
:1056B00001C00030010C01F0010000000104018C68
:1056C00000740170018C010400000101018101716D
:1056D000000E001801600180010000000184010C2F
:1056E000013401440184010C0000000000000000AE
:1056F000000001003EFC40024002000000000000EB
:105700000000FFFF00000000000000004002400217
:105710003EFC01000000000000000000600080006E
:10572000800040004000200020000000505700088A
:105730000000002020000000904C00087057000876
:1057400020000020400C0000A04C000800000000D9
:105750000024F4000000BD4200002243FEFF8F4001
:1057600000001043010099420100000010000000F9
:040000050800018965
:00000001FF
